:020000040000FA
:08000000803102288731EF2F47
:100AF4007830210099009801220096010800853180
:100B0400ED25853185317A258531080022000E11C5
:100B14008E100E150032003222008E140800FE00E2
:100B240012001E000130FE020030FF3B7F087E04ED
:100B3400031D922D003422000E11003200322200D7
:100B44008E140E150032003222008E100E11080091
:100B5400F50085319D2585317830863137268531FC
:100B64000030863137268531750886313726853140
:100B74008531882585310800F50085319D2585312D
:100B840078308631372685314030863137268531B5
:100B940075088631372685318531882585310800E9
:100BA4008531812585310B30FD002630FC005E3017
:100BB400890BDA2DFC0BDA2DFD0BDA2D8631662636
:100BC4008531003086310D2685318631AA2685315E
:100BD400EA2D8031022822008C0109308E00373042
:100BE40021008C0039308E0023008E0114308C00DB
:100BF40024008C018E012100951725008C018E01A3
:100C0400373026008C003F308E003F3027008C00A8
:100C14003F308E000800F700F901F9017908B03E71
:100C24008531AA25863110308531AA2586310230D6
:100C34008531AA258631F80177088531BE258631AC
:100C44000130F6007608F80780307802031C2B2E5A
:100C54002C2E1E2E0130F6007608F9070830790292
:100C6400031C352E362E102E0800F2007208F000F8
:100C74007008F400F301F41B402E432E22008E145E
:100C8400452E22008E10000022000E1500000000E8
:100C940022000E117435F0007008F4000130F000E9
:100CA4007008F30708307302031C592E5A2E3D2E88
:100CB4008E140000000022000E1500000000200029
:100CC4000E0822000E110800853188258631AE30C9
:100CD4008531AA258631D5308531AA2586318030E3
:100CE4008531AA258631AD308531AA2586318B30F0
:100CF4008531AA25863132308531AA258631813065
:100D04008531AA25863180308531AA258631DA30AD
:100D14008531AA25863112308531AA258631D33012
:100D24008531AA25863100308531AA258631A13046
:100D34008531AA258631C8308531AA258631A63069
:100D44008531AA258631AF308531AA258631080040
:100D5400FB010330F6007608FA007A08B03E8531CC
:100D6400AA25863110308531AA2586310230853195
:100D7400AA258631FB0103307A06031DC22EC32E39
:100D8400D72E7B08F600F701F635F70D0030F80092
:100D94002330F9007608780786007708793D8700C4
:100DA40001088531BE258631EA2E7B08F600F7015D
:100DB400F635F70D0130F8002330F900760878078E
:100DC40086007708793D870001088531BE25863184
:100DD4000130F6007608FB0780307B02031CF32EFB
:100DE400F42EBD2E0130F6007608FA0705307A029B
:100DF400031CFD2EFE2EAF2E0800003400340034F8
:100E0400003400340034003400340034003400343E
:100E1400003400340034003400340034003400342E
:100E2400003400340034003400340034003400341E
:100E340000340034003400340034FF347F34FF3491
:100E44007F3400340034003400340034003400347F
:100E54000034FF347F34FF347F340E3400341834CC
:100E640000343034003460340034C034003480340E
:100E7400013400340734FF347F34FF347F340C34BE
:100E84000034183400343034003460340034C03456
:100E94000034803401340034033400340634003424
:100EA4000C3400341834FF347F34FF347F3400347E
:100EB4000034E0340334F8340F340C34183406347A
:100EC4003034033460340134403401344034013468
:100ED4004034013440340134403401344034033468
:100EE4006034063430340C341834F8340734E034C5
:100EF40003340034003400340034FF347F34FF34CE
:100F04007F34FF347F34073400348734013487342A
:100F1400073487340F34FF341F34FF347934FE34FC
:100F240070340034603400340034003470340034DD
:100F34007E34E0347F34FC340F34FF3401343F34E6
:100F440000343F340034FC340134F0340F34C03402
:100F54007F3400347E340034703400340034003480
:100F64000034FF347F34FF347F34FF347F3407345C
:100F74007034073470340734703407347034FE34FA
:100F84007F34FE343F34F8340F34003400340034FA
:100F94000034FF347F34FF347F34FF347F34003433
:100FA4000034003400340034703400347E34F034BF
:100FB4007F34FC340F34FF3401343F3400343F3485
:100FC4000034FC340134F0340F34C0347F34003442
:100FD4007E340034703400344034FF308400863072
:100FE400850000308600233087000030FF00F03099
:0C0FF40085319125873120008531D22DF8
:020000040001F9
:06000E00FC3FFF3E9F3F96
:00000001FF
